{
  "_format": "hh-sol-artifact-1",
  "contractName": "MyEpicNFT",
  "sourceName": "contracts/MyEpicNFT.sol",
  "abi": [
    {
      "inputs": [],
      "stateMutability": "nonpayable",
      "type": "constructor"
    },
    {
      "anonymous": false,
      "inputs": [
        {
          "indexed": true,
          "internalType": "address",
          "name": "owner",
          "type": "address"
        },
        {
          "indexed": true,
          "internalType": "address",
          "name": "approved",
          "type": "address"
        },
        {
          "indexed": true,
          "internalType": "uint256",
          "name": "tokenId",
          "type": "uint256"
        }
      ],
      "name": "Approval",
      "type": "event"
    },
    {
      "anonymous": false,
      "inputs": [
        {
          "indexed": true,
          "internalType": "address",
          "name": "owner",
          "type": "address"
        },
        {
          "indexed": true,
          "internalType": "address",
          "name": "operator",
          "type": "address"
        },
        {
          "indexed": false,
          "internalType": "bool",
          "name": "approved",
          "type": "bool"
        }
      ],
      "name": "ApprovalForAll",
      "type": "event"
    },
    {
      "anonymous": false,
      "inputs": [
        {
          "indexed": false,
          "internalType": "address",
          "name": "sender",
          "type": "address"
        },
        {
          "indexed": false,
          "internalType": "uint256",
          "name": "tokenId",
          "type": "uint256"
        }
      ],
      "name": "NewEpicNFTMinted",
      "type": "event"
    },
    {
      "anonymous": false,
      "inputs": [
        {
          "indexed": true,
          "internalType": "address",
          "name": "from",
          "type": "address"
        },
        {
          "indexed": true,
          "internalType": "address",
          "name": "to",
          "type": "address"
        },
        {
          "indexed": true,
          "internalType": "uint256",
          "name": "tokenId",
          "type": "uint256"
        }
      ],
      "name": "Transfer",
      "type": "event"
    },
    {
      "inputs": [
        {
          "internalType": "address",
          "name": "to",
          "type": "address"
        },
        {
          "internalType": "uint256",
          "name": "tokenId",
          "type": "uint256"
        }
      ],
      "name": "approve",
      "outputs": [],
      "stateMutability": "nonpayable",
      "type": "function"
    },
    {
      "inputs": [
        {
          "internalType": "address",
          "name": "owner",
          "type": "address"
        }
      ],
      "name": "balanceOf",
      "outputs": [
        {
          "internalType": "uint256",
          "name": "",
          "type": "uint256"
        }
      ],
      "stateMutability": "view",
      "type": "function"
    },
    {
      "inputs": [
        {
          "internalType": "uint256",
          "name": "tokenId",
          "type": "uint256"
        }
      ],
      "name": "getApproved",
      "outputs": [
        {
          "internalType": "address",
          "name": "",
          "type": "address"
        }
      ],
      "stateMutability": "view",
      "type": "function"
    },
    {
      "inputs": [
        {
          "internalType": "address",
          "name": "owner",
          "type": "address"
        },
        {
          "internalType": "address",
          "name": "operator",
          "type": "address"
        }
      ],
      "name": "isApprovedForAll",
      "outputs": [
        {
          "internalType": "bool",
          "name": "",
          "type": "bool"
        }
      ],
      "stateMutability": "view",
      "type": "function"
    },
    {
      "inputs": [
        {
          "internalType": "string",
          "name": "name",
          "type": "string"
        },
        {
          "internalType": "string",
          "name": "description",
          "type": "string"
        },
        {
          "internalType": "string",
          "name": "imageUrl",
          "type": "string"
        },
        {
          "internalType": "string",
          "name": "attribs",
          "type": "string"
        }
      ],
      "name": "makeAnEpicNFT",
      "outputs": [],
      "stateMutability": "nonpayable",
      "type": "function"
    },
    {
      "inputs": [],
      "name": "name",
      "outputs": [
        {
          "internalType": "string",
          "name": "",
          "type": "string"
        }
      ],
      "stateMutability": "view",
      "type": "function"
    },
    {
      "inputs": [
        {
          "internalType": "uint256",
          "name": "tokenId",
          "type": "uint256"
        }
      ],
      "name": "ownerOf",
      "outputs": [
        {
          "internalType": "address",
          "name": "",
          "type": "address"
        }
      ],
      "stateMutability": "view",
      "type": "function"
    },
    {
      "inputs": [
        {
          "internalType": "address",
          "name": "from",
          "type": "address"
        },
        {
          "internalType": "address",
          "name": "to",
          "type": "address"
        },
        {
          "internalType": "uint256",
          "name": "tokenId",
          "type": "uint256"
        }
      ],
      "name": "safeTransferFrom",
      "outputs": [],
      "stateMutability": "nonpayable",
      "type": "function"
    },
    {
      "inputs": [
        {
          "internalType": "address",
          "name": "from",
          "type": "address"
        },
        {
          "internalType": "address",
          "name": "to",
          "type": "address"
        },
        {
          "internalType": "uint256",
          "name": "tokenId",
          "type": "uint256"
        },
        {
          "internalType": "bytes",
          "name": "data",
          "type": "bytes"
        }
      ],
      "name": "safeTransferFrom",
      "outputs": [],
      "stateMutability": "nonpayable",
      "type": "function"
    },
    {
      "inputs": [
        {
          "internalType": "address",
          "name": "operator",
          "type": "address"
        },
        {
          "internalType": "bool",
          "name": "approved",
          "type": "bool"
        }
      ],
      "name": "setApprovalForAll",
      "outputs": [],
      "stateMutability": "nonpayable",
      "type": "function"
    },
    {
      "inputs": [
        {
          "internalType": "bytes4",
          "name": "interfaceId",
          "type": "bytes4"
        }
      ],
      "name": "supportsInterface",
      "outputs": [
        {
          "internalType": "bool",
          "name": "",
          "type": "bool"
        }
      ],
      "stateMutability": "view",
      "type": "function"
    },
    {
      "inputs": [],
      "name": "symbol",
      "outputs": [
        {
          "internalType": "string",
          "name": "",
          "type": "string"
        }
      ],
      "stateMutability": "view",
      "type": "function"
    },
    {
      "inputs": [
        {
          "internalType": "uint256",
          "name": "tokenId",
          "type": "uint256"
        }
      ],
      "name": "tokenURI",
      "outputs": [
        {
          "internalType": "string",
          "name": "",
          "type": "string"
        }
      ],
      "stateMutability": "view",
      "type": "function"
    },
    {
      "inputs": [
        {
          "internalType": "address",
          "name": "from",
          "type": "address"
        },
        {
          "internalType": "address",
          "name": "to",
          "type": "address"
        },
        {
          "internalType": "uint256",
          "name": "tokenId",
          "type": "uint256"
        }
      ],
      "name": "transferFrom",
      "outputs": [],
      "stateMutability": "nonpayable",
      "type": "function"
    }
  ],
  "bytecode": "0x60806040523480156200001157600080fd5b506040518060400160405280600981526020017f5371756172654e465400000000000000000000000000000000000000000000008152506040518060400160405280600681526020017f535155415245000000000000000000000000000000000000000000000000000081525081600090816200008f91906200043b565b508060019081620000a191906200043b565b505050620000ef6040518060400160405280601e81526020017f54686973206973206d79204e465420636f6e74726163742e20576f6168210000815250620000f560201b62000bc81760201c565b620005d5565b62000195816040516024016200010c9190620005b1565b6040516020818303038152906040527f41304fac000000000000000000000000000000000000000000000000000000007bffffffffffffffffffffffffffffffffffffffffffffffffffffffff19166020820180517bffffffffffffffffffffffffffffffffffffffffffffffffffffffff83818316178352505050506200019860201b60201c565b50565b60008151905060006a636f6e736f6c652e6c6f679050602083016000808483855afa5050505050565b600081519050919050565b7f4e487b7100000000000000000000000000000000000000000000000000000000600052604160045260246000fd5b7f4e487b7100000000000000000000000000000000000000000000000000000000600052602260045260246000fd5b600060028204905060018216806200024357607f821691505b602082108103620002595762000258620001fb565b5b50919050565b60008190508160005260206000209050919050565b60006020601f8301049050919050565b600082821b905092915050565b600060088302620002c37fffffffffffffffffffffffffffffffffffffffffffffffffffffffffffffffff8262000284565b620002cf868362000284565b95508019841693508086168417925050509392505050565b6000819050919050565b6000819050919050565b60006200031c620003166200031084620002e7565b620002f1565b620002e7565b9050919050565b6000819050919050565b6200033883620002fb565b62000350620003478262000323565b84845462000291565b825550505050565b600090565b6200036762000358565b620003748184846200032d565b505050565b5b818110156200039c57620003906000826200035d565b6001810190506200037a565b5050565b601f821115620003eb57620003b5816200025f565b620003c08462000274565b81016020851015620003d0578190505b620003e8620003df8562000274565b83018262000379565b50505b505050565b600082821c905092915050565b60006200041060001984600802620003f0565b1980831691505092915050565b60006200042b8383620003fd565b9150826002028217905092915050565b6200044682620001c1565b67ffffffffffffffff811115620004625762000461620001cc565b5b6200046e82546200022a565b6200047b828285620003a0565b600060209050601f831160018114620004b357600084156200049e578287015190505b620004aa85826200041d565b8655506200051a565b601f198416620004c3866200025f565b60005b82811015620004ed57848901518255600182019150602085019450602081019050620004c6565b868310156200050d578489015162000509601f891682620003fd565b8355505b6001600288020188555050505b505050505050565b600082825260208201905092915050565b60005b838110156200055357808201518184015260208101905062000536565b60008484015250505050565b6000601f19601f8301169050919050565b60006200057d82620001c1565b62000589818562000522565b93506200059b81856020860162000533565b620005a6816200055f565b840191505092915050565b60006020820190508181036000830152620005cd818462000570565b905092915050565b6132b080620005e56000396000f3fe608060405234801561001057600080fd5b50600436106100ea5760003560e01c806370a082311161008c578063a22cb46511610066578063a22cb4651461025b578063b88d4fde14610277578063c87b56dd14610293578063e985e9c5146102c3576100ea565b806370a08231146101f15780637290795a1461022157806395d89b411461023d576100ea565b8063095ea7b3116100c8578063095ea7b31461016d57806323b872dd1461018957806342842e0e146101a55780636352211e146101c1576100ea565b806301ffc9a7146100ef57806306fdde031461011f578063081812fc1461013d575b600080fd5b61010960048036038101906101049190611c47565b6102f3565b6040516101169190611c8f565b60405180910390f35b6101276103d5565b6040516101349190611d3a565b60405180910390f35b61015760048036038101906101529190611d92565b610467565b6040516101649190611e00565b60405180910390f35b61018760048036038101906101829190611e47565b6104ad565b005b6101a3600480360381019061019e9190611e87565b6105c4565b005b6101bf60048036038101906101ba9190611e87565b610624565b005b6101db60048036038101906101d69190611d92565b610644565b6040516101e89190611e00565b60405180910390f35b61020b60048036038101906102069190611eda565b6106f5565b6040516102189190611f16565b60405180910390f35b61023b60048036038101906102369190612066565b6107ac565b005b610245610918565b6040516102529190611d3a565b60405180910390f35b61027560048036038101906102709190612169565b6109aa565b005b610291600480360381019061028c919061224a565b6109c0565b005b6102ad60048036038101906102a89190611d92565b610a22565b6040516102ba9190611d3a565b60405180910390f35b6102dd60048036038101906102d891906122cd565b610b34565b6040516102ea9190611c8f565b60405180910390f35b60007f80ac58cd000000000000000000000000000000000000000000000000000000007bffffffffffffffffffffffffffffffffffffffffffffffffffffffff1916827bffffffffffffffffffffffffffffffffffffffffffffffffffffffff191614806103be57507f5b5e139f000000000000000000000000000000000000000000000000000000007bffffffffffffffffffffffffffffffffffffffffffffffffffffffff1916827bffffffffffffffffffffffffffffffffffffffffffffffffffffffff1916145b806103ce57506103cd82610c61565b5b9050919050565b6060600080546103e49061233c565b80601f01602080910402602001604051908101604052809291908181526020018280546104109061233c565b801561045d5780601f106104325761010080835404028352916020019161045d565b820191906000526020600020905b81548152906001019060200180831161044057829003601f168201915b5050505050905090565b600061047282610ccb565b6004600083815260200190815260200160002060009054906101000a900473ffffffffffffffffffffffffffffffffffffffff169050919050565b60006104b882610644565b90508073ffffffffffffffffffffffffffffffffffffffff168373ffffffffffffffffffffffffffffffffffffffff1603610528576040517f08c379a000000000000000000000000000000000000000000000000000000000815260040161051f906123df565b60405180910390fd5b8073ffffffffffffffffffffffffffffffffffffffff16610547610d16565b73ffffffffffffffffffffffffffffffffffffffff161480610576575061057581610570610d16565b610b34565b5b6105b5576040517f08c379a00000000000000000000000000000000000000000000000000000000081526004016105ac90612471565b60405180910390fd5b6105bf8383610d1e565b505050565b6105d56105cf610d16565b82610dd7565b610614576040517f08c379a000000000000000000000000000000000000000000000000000000000815260040161060b90612503565b60405180910390fd5b61061f838383610e6c565b505050565b61063f838383604051806020016040528060008152506109c0565b505050565b6000806002600084815260200190815260200160002060009054906101000a900473ffffffffffffffffffffffffffffffffffffffff169050600073ffffffffffffffffffffffffffffffffffffffff168173ffffffffffffffffffffffffffffffffffffffff16036106ec576040517f08c379a00000000000000000000000000000000000000000000000000000000081526004016106e39061256f565b60405180910390fd5b80915050919050565b60008073ffffffffffffffffffffffffffffffffffffffff168273ffffffffffffffffffffffffffffffffffffffff1603610765576040517f08c379a000000000000000000000000000000000000000000000000000000000815260040161075c90612601565b60405180910390fd5b600360008373ffffffffffffffffffffffffffffffffffffffff1673ffffffffffffffffffffffffffffffffffffffff168152602001908152602001600020549050919050565b60006107b860076110d2565b905060006107ea868686866040516020016107d694939291906127d9565b6040516020818303038152906040526110e0565b90506000816040516020016107ff919061289a565b604051602081830303815290604052905061084e6040518060400160405280601581526020017f0a2d2d2d2d2d2d2d2d2d2d2d2d2d2d2d2d2d2d2d2d0000000000000000000000815250610bc8565b61085781610bc8565b6108956040518060400160405280601581526020017f2d2d2d2d2d2d2d2d2d2d2d2d2d2d2d2d2d2d2d2d0a0000000000000000000000815250610bc8565b61089f3384611277565b6108a98382611295565b6108b36007611302565b7febb98688741ffa4c7589bf325de30cf7becb63de567842e1ccdb6cb949fdc82c33846040516108e49291906128bc565b60405180910390a161090f604051806060016040528060258152602001613216602591398433611318565b50505050505050565b6060600180546109279061233c565b80601f01602080910402602001604051908101604052809291908181526020018280546109539061233c565b80156109a05780601f10610975576101008083540402835291602001916109a0565b820191906000526020600020905b81548152906001019060200180831161098357829003601f168201915b5050505050905090565b6109bc6109b5610d16565b83836113b7565b5050565b6109d16109cb610d16565b83610dd7565b610a10576040517f08c379a0000000000000000000000000000000000000000000000000000000008152600401610a0790612503565b60405180910390fd5b610a1c84848484611523565b50505050565b6060610a2d82610ccb565b6000600660008481526020019081526020016000208054610a4d9061233c565b80601f0160208091040260200160405190810160405280929190818152602001828054610a799061233c565b8015610ac65780601f10610a9b57610100808354040283529160200191610ac6565b820191906000526020600020905b815481529060010190602001808311610aa957829003601f168201915b505050505090506000610ad761157f565b90506000815103610aec578192505050610b2f565b600082511115610b21578082604051602001610b099291906128e5565b60405160208183030381529060405292505050610b2f565b610b2a84611596565b925050505b919050565b6000600560008473ffffffffffffffffffffffffffffffffffffffff1673ffffffffffffffffffffffffffffffffffffffff16815260200190815260200160002060008373ffffffffffffffffffffffffffffffffffffffff1673ffffffffffffffffffffffffffffffffffffffff16815260200190815260200160002060009054906101000a900460ff16905092915050565b610c5e81604051602401610bdc9190611d3a565b6040516020818303038152906040527f41304fac000000000000000000000000000000000000000000000000000000007bffffffffffffffffffffffffffffffffffffffffffffffffffffffff19166020820180517bffffffffffffffffffffffffffffffffffffffffffffffffffffffff83818316178352505050506115fe565b50565b60007f01ffc9a7000000000000000000000000000000000000000000000000000000007bffffffffffffffffffffffffffffffffffffffffffffffffffffffff1916827bffffffffffffffffffffffffffffffffffffffffffffffffffffffff1916149050919050565b610cd481611627565b610d13576040517f08c379a0000000000000000000000000000000000000000000000000000000008152600401610d0a9061256f565b60405180910390fd5b50565b600033905090565b816004600083815260200190815260200160002060006101000a81548173ffffffffffffffffffffffffffffffffffffffff021916908373ffffffffffffffffffffffffffffffffffffffff160217905550808273ffffffffffffffffffffffffffffffffffffffff16610d9183610644565b73ffffffffffffffffffffffffffffffffffffffff167f8c5be1e5ebec7d5bd14f71427d1e84f3dd0314c0f7b2291e5b200ac8c7c3b92560405160405180910390a45050565b600080610de383610644565b90508073ffffffffffffffffffffffffffffffffffffffff168473ffffffffffffffffffffffffffffffffffffffff161480610e255750610e248185610b34565b5b80610e6357508373ffffffffffffffffffffffffffffffffffffffff16610e4b84610467565b73ffffffffffffffffffffffffffffffffffffffff16145b91505092915050565b8273ffffffffffffffffffffffffffffffffffffffff16610e8c82610644565b73ffffffffffffffffffffffffffffffffffffffff1614610ee2576040517f08c379a0000000000000000000000000000000000000000000000000000000008152600401610ed99061297b565b60405180910390fd5b600073ffffffffffffffffffffffffffffffffffffffff168273ffffffffffffffffffffffffffffffffffffffff1603610f51576040517f08c379a0000000000000000000000000000000000000000000000000000000008152600401610f4890612a0d565b60405180910390fd5b610f5c838383611693565b610f67600082610d1e565b6001600360008573ffffffffffffffffffffffffffffffffffffffff1673ffffffffffffffffffffffffffffffffffffffff1681526020019081526020016000206000828254610fb79190612a5c565b925050819055506001600360008473ffffffffffffffffffffffffffffffffffffffff1673ffffffffffffffffffffffffffffffffffffffff168152602001908152602001600020600082825461100e9190612a90565b92505081905550816002600083815260200190815260200160002060006101000a81548173ffffffffffffffffffffffffffffffffffffffff021916908373ffffffffffffffffffffffffffffffffffffffff160217905550808273ffffffffffffffffffffffffffffffffffffffff168473ffffffffffffffffffffffffffffffffffffffff167fddf252ad1be2c89b69c2b068fc378daa952ba7f163c4a11628f55a4df523b3ef60405160405180910390a46110cd838383611698565b505050565b600081600001549050919050565b6060600082519050600081036111085760405180602001604052806000815250915050611272565b600060036002836111199190612a90565b6111239190612af3565b600461112f9190612b24565b905060006020826111409190612a90565b67ffffffffffffffff81111561115957611158611f3b565b5b6040519080825280601f01601f19166020018201604052801561118b5781602001600182028036833780820191505090505b509050600060405180606001604052806040815260200161323b604091399050600181016020830160005b8681101561122f5760038101905062ffffff818a015116603f8160121c168401518060081b905060ff603f83600c1c1686015116810190508060081b905060ff603f8360061c1686015116810190508060081b905060ff603f831686015116810190508060e01b905080845260048401935050506111b6565b506003860660018114611249576002811461125957611264565b613d3d60f01b6002830352611264565b603d60f81b60018303525b508484525050819450505050505b919050565b61129182826040518060200160405280600081525061169d565b5050565b61129e82611627565b6112dd576040517f08c379a00000000000000000000000000000000000000000000000000000000081526004016112d490612bd8565b60405180910390fd5b806006600084815260200190815260200160002090816112fd9190612da4565b505050565b6001816000016000828254019250508190555050565b6113b283838360405160240161133093929190612e76565b6040516020818303038152906040527f1c7ec448000000000000000000000000000000000000000000000000000000007bffffffffffffffffffffffffffffffffffffffffffffffffffffffff19166020820180517bffffffffffffffffffffffffffffffffffffffffffffffffffffffff83818316178352505050506115fe565b505050565b8173ffffffffffffffffffffffffffffffffffffffff168373ffffffffffffffffffffffffffffffffffffffff1603611425576040517f08c379a000000000000000000000000000000000000000000000000000000000815260040161141c90612f00565b60405180910390fd5b80600560008573ffffffffffffffffffffffffffffffffffffffff1673ffffffffffffffffffffffffffffffffffffffff16815260200190815260200160002060008473ffffffffffffffffffffffffffffffffffffffff1673ffffffffffffffffffffffffffffffffffffffff16815260200190815260200160002060006101000a81548160ff0219169083151502179055508173ffffffffffffffffffffffffffffffffffffffff168373ffffffffffffffffffffffffffffffffffffffff167f17307eab39ab6107e8899845ad3d59bd9653f200f220920489ca2b5937696c31836040516115169190611c8f565b60405180910390a3505050565b61152e848484610e6c565b61153a848484846116f8565b611579576040517f08c379a000000000000000000000000000000000000000000000000000000000815260040161157090612f92565b60405180910390fd5b50505050565b606060405180602001604052806000815250905090565b60606115a182610ccb565b60006115ab61157f565b905060008151116115cb57604051806020016040528060008152506115f6565b806115d58461187f565b6040516020016115e69291906128e5565b6040516020818303038152906040525b915050919050565b60008151905060006a636f6e736f6c652e6c6f679050602083016000808483855afa5050505050565b60008073ffffffffffffffffffffffffffffffffffffffff166002600084815260200190815260200160002060009054906101000a900473ffffffffffffffffffffffffffffffffffffffff1673ffffffffffffffffffffffffffffffffffffffff1614159050919050565b505050565b505050565b6116a783836119df565b6116b460008484846116f8565b6116f3576040517f08c379a00000000000000000000000000000000000000000000000000000000081526004016116ea90612f92565b60405180910390fd5b505050565b60006117198473ffffffffffffffffffffffffffffffffffffffff16611bb8565b15611872578373ffffffffffffffffffffffffffffffffffffffff1663150b7a02611742610d16565b8786866040518563ffffffff1660e01b81526004016117649493929190613007565b6020604051808303816000875af19250505080156117a057506040513d601f19601f8201168201806040525081019061179d9190613068565b60015b611822573d80600081146117d0576040519150601f19603f3d011682016040523d82523d6000602084013e6117d5565b606091505b50600081510361181a576040517f08c379a000000000000000000000000000000000000000000000000000000000815260040161181190612f92565b60405180910390fd5b805181602001fd5b63150b7a0260e01b7bffffffffffffffffffffffffffffffffffffffffffffffffffffffff1916817bffffffffffffffffffffffffffffffffffffffffffffffffffffffff191614915050611877565b600190505b949350505050565b6060600082036118c6576040518060400160405280600181526020017f300000000000000000000000000000000000000000000000000000000000000081525090506119da565b600082905060005b600082146118f85780806118e190613095565b915050600a826118f19190612af3565b91506118ce565b60008167ffffffffffffffff81111561191457611913611f3b565b5b6040519080825280601f01601f1916602001820160405280156119465781602001600182028036833780820191505090505b5090505b600085146119d35760018261195f9190612a5c565b9150600a8561196e91906130dd565b603061197a9190612a90565b60f81b8183815181106119905761198f61310e565b5b60200101907effffffffffffffffffffffffffffffffffffffffffffffffffffffffffffff1916908160001a905350600a856119cc9190612af3565b945061194a565b8093505050505b919050565b600073ffffffffffffffffffffffffffffffffffffffff168273ffffffffffffffffffffffffffffffffffffffff1603611a4e576040517f08c379a0000000000000000000000000000000000000000000000000000000008152600401611a4590613189565b60405180910390fd5b611a5781611627565b15611a97576040517f08c379a0000000000000000000000000000000000000000000000000000000008152600401611a8e906131f5565b60405180910390fd5b611aa360008383611693565b6001600360008473ffffffffffffffffffffffffffffffffffffffff1673ffffffffffffffffffffffffffffffffffffffff1681526020019081526020016000206000828254611af39190612a90565b92505081905550816002600083815260200190815260200160002060006101000a81548173ffffffffffffffffffffffffffffffffffffffff021916908373ffffffffffffffffffffffffffffffffffffffff160217905550808273ffffffffffffffffffffffffffffffffffffffff16600073ffffffffffffffffffffffffffffffffffffffff167fddf252ad1be2c89b69c2b068fc378daa952ba7f163c4a11628f55a4df523b3ef60405160405180910390a4611bb460008383611698565b5050565b6000808273ffffffffffffffffffffffffffffffffffffffff163b119050919050565b6000604051905090565b600080fd5b600080fd5b60007fffffffff0000000000000000000000000000000000000000000000000000000082169050919050565b611c2481611bef565b8114611c2f57600080fd5b50565b600081359050611c4181611c1b565b92915050565b600060208284031215611c5d57611c5c611be5565b5b6000611c6b84828501611c32565b91505092915050565b60008115159050919050565b611c8981611c74565b82525050565b6000602082019050611ca46000830184611c80565b92915050565b600081519050919050565b600082825260208201905092915050565b60005b83811015611ce4578082015181840152602081019050611cc9565b60008484015250505050565b6000601f19601f8301169050919050565b6000611d0c82611caa565b611d168185611cb5565b9350611d26818560208601611cc6565b611d2f81611cf0565b840191505092915050565b60006020820190508181036000830152611d548184611d01565b905092915050565b6000819050919050565b611d6f81611d5c565b8114611d7a57600080fd5b50565b600081359050611d8c81611d66565b92915050565b600060208284031215611da857611da7611be5565b5b6000611db684828501611d7d565b91505092915050565b600073ffffffffffffffffffffffffffffffffffffffff82169050919050565b6000611dea82611dbf565b9050919050565b611dfa81611ddf565b82525050565b6000602082019050611e156000830184611df1565b92915050565b611e2481611ddf565b8114611e2f57600080fd5b50565b600081359050611e4181611e1b565b92915050565b60008060408385031215611e5e57611e5d611be5565b5b6000611e6c85828601611e32565b9250506020611e7d85828601611d7d565b9150509250929050565b600080600060608486031215611ea057611e9f611be5565b5b6000611eae86828701611e32565b9350506020611ebf86828701611e32565b9250506040611ed086828701611d7d565b9150509250925092565b600060208284031215611ef057611eef611be5565b5b6000611efe84828501611e32565b91505092915050565b611f1081611d5c565b82525050565b6000602082019050611f2b6000830184611f07565b92915050565b600080fd5b600080fd5b7f4e487b7100000000000000000000000000000000000000000000000000000000600052604160045260246000fd5b611f7382611cf0565b810181811067ffffffffffffffff82111715611f9257611f91611f3b565b5b80604052505050565b6000611fa5611bdb565b9050611fb18282611f6a565b919050565b600067ffffffffffffffff821115611fd157611fd0611f3b565b5b611fda82611cf0565b9050602081019050919050565b82818337600083830152505050565b600061200961200484611fb6565b611f9b565b90508281526020810184848401111561202557612024611f36565b5b612030848285611fe7565b509392505050565b600082601f83011261204d5761204c611f31565b5b813561205d848260208601611ff6565b91505092915050565b600080600080608085870312156120805761207f611be5565b5b600085013567ffffffffffffffff81111561209e5761209d611bea565b5b6120aa87828801612038565b945050602085013567ffffffffffffffff8111156120cb576120ca611bea565b5b6120d787828801612038565b935050604085013567ffffffffffffffff8111156120f8576120f7611bea565b5b61210487828801612038565b925050606085013567ffffffffffffffff81111561212557612124611bea565b5b61213187828801612038565b91505092959194509250565b61214681611c74565b811461215157600080fd5b50565b6000813590506121638161213d565b92915050565b600080604083850312156121805761217f611be5565b5b600061218e85828601611e32565b925050602061219f85828601612154565b9150509250929050565b600067ffffffffffffffff8211156121c4576121c3611f3b565b5b6121cd82611cf0565b9050602081019050919050565b60006121ed6121e8846121a9565b611f9b565b90508281526020810184848401111561220957612208611f36565b5b612214848285611fe7565b509392505050565b600082601f83011261223157612230611f31565b5b81356122418482602086016121da565b91505092915050565b6000806000806080858703121561226457612263611be5565b5b600061227287828801611e32565b945050602061228387828801611e32565b935050604061229487828801611d7d565b925050606085013567ffffffffffffffff8111156122b5576122b4611bea565b5b6122c18782880161221c565b91505092959194509250565b600080604083850312156122e4576122e3611be5565b5b60006122f285828601611e32565b925050602061230385828601611e32565b9150509250929050565b7f4e487b7100000000000000000000000000000000000000000000000000000000600052602260045260246000fd5b6000600282049050600182168061235457607f821691505b6020821081036123675761236661230d565b5b50919050565b7f4552433732313a20617070726f76616c20746f2063757272656e74206f776e6560008201527f7200000000000000000000000000000000000000000000000000000000000000602082015250565b60006123c9602183611cb5565b91506123d48261236d565b604082019050919050565b600060208201905081810360008301526123f8816123bc565b9050919050565b7f4552433732313a20617070726f76652063616c6c6572206973206e6f7420746f60008201527f6b656e206f776e6572206e6f7220617070726f76656420666f7220616c6c0000602082015250565b600061245b603e83611cb5565b9150612466826123ff565b604082019050919050565b6000602082019050818103600083015261248a8161244e565b9050919050565b7f4552433732313a2063616c6c6572206973206e6f7420746f6b656e206f776e6560008201527f72206e6f7220617070726f766564000000000000000000000000000000000000602082015250565b60006124ed602e83611cb5565b91506124f882612491565b604082019050919050565b6000602082019050818103600083015261251c816124e0565b9050919050565b7f4552433732313a20696e76616c696420746f6b656e2049440000000000000000600082015250565b6000612559601883611cb5565b915061256482612523565b602082019050919050565b600060208201905081810360008301526125888161254c565b9050919050565b7f4552433732313a2061646472657373207a65726f206973206e6f74206120766160008201527f6c6964206f776e65720000000000000000000000000000000000000000000000602082015250565b60006125eb602983611cb5565b91506125f68261258f565b604082019050919050565b6000602082019050818103600083015261261a816125de565b9050919050565b600081905092915050565b7f7b226e616d65223a202200000000000000000000000000000000000000000000600082015250565b6000612662600a83612621565b915061266d8261262c565b600a82019050919050565b600061268382611caa565b61268d8185612621565b935061269d818560208601611cc6565b80840191505092915050565b7f222c20226465736372697074696f6e223a202200000000000000000000000000600082015250565b60006126df601383612621565b91506126ea826126a9565b601382019050919050565b7f222c2022696d616765223a202200000000000000000000000000000000000000600082015250565b600061272b600d83612621565b9150612736826126f5565b600d82019050919050565b7f222c202261747472696275746573223a20000000000000000000000000000000600082015250565b6000612777601183612621565b915061278282612741565b601182019050919050565b7f7d00000000000000000000000000000000000000000000000000000000000000600082015250565b60006127c3600183612621565b91506127ce8261278d565b600182019050919050565b60006127e482612655565b91506127f08287612678565b91506127fb826126d2565b91506128078286612678565b91506128128261271e565b915061281e8285612678565b91506128298261276a565b91506128358284612678565b9150612840826127b6565b915081905095945050505050565b7f646174613a6170706c69636174696f6e2f6a736f6e3b6261736536342c000000600082015250565b6000612884601d83612621565b915061288f8261284e565b601d82019050919050565b60006128a582612877565b91506128b18284612678565b915081905092915050565b60006040820190506128d16000830185611df1565b6128de6020830184611f07565b9392505050565b60006128f18285612678565b91506128fd8284612678565b91508190509392505050565b7f4552433732313a207472616e736665722066726f6d20696e636f72726563742060008201527f6f776e6572000000000000000000000000000000000000000000000000000000602082015250565b6000612965602583611cb5565b915061297082612909565b604082019050919050565b6000602082019050818103600083015261299481612958565b9050919050565b7f4552433732313a207472616e7366657220746f20746865207a65726f2061646460008201527f7265737300000000000000000000000000000000000000000000000000000000602082015250565b60006129f7602483611cb5565b9150612a028261299b565b604082019050919050565b60006020820190508181036000830152612a26816129ea565b9050919050565b7f4e487b7100000000000000000000000000000000000000000000000000000000600052601160045260246000fd5b6000612a6782611d5c565b9150612a7283611d5c565b9250828203905081811115612a8a57612a89612a2d565b5b92915050565b6000612a9b82611d5c565b9150612aa683611d5c565b9250828201905080821115612abe57612abd612a2d565b5b92915050565b7f4e487b7100000000000000000000000000000000000000000000000000000000600052601260045260246000fd5b6000612afe82611d5c565b9150612b0983611d5c565b925082612b1957612b18612ac4565b5b828204905092915050565b6000612b2f82611d5c565b9150612b3a83611d5c565b9250828202612b4881611d5c565b91508282048414831517612b5f57612b5e612a2d565b5b5092915050565b7f45524337323155524953746f726167653a2055524920736574206f66206e6f6e60008201527f6578697374656e7420746f6b656e000000000000000000000000000000000000602082015250565b6000612bc2602e83611cb5565b9150612bcd82612b66565b604082019050919050565b60006020820190508181036000830152612bf181612bb5565b9050919050565b60008190508160005260206000209050919050565b60006020601f8301049050919050565b600082821b905092915050565b600060088302612c5a7fffffffffffffffffffffffffffffffffffffffffffffffffffffffffffffffff82612c1d565b612c648683612c1d565b95508019841693508086168417925050509392505050565b6000819050919050565b6000612ca1612c9c612c9784611d5c565b612c7c565b611d5c565b9050919050565b6000819050919050565b612cbb83612c86565b612ccf612cc782612ca8565b848454612c2a565b825550505050565b600090565b612ce4612cd7565b612cef818484612cb2565b505050565b5b81811015612d1357612d08600082612cdc565b600181019050612cf5565b5050565b601f821115612d5857612d2981612bf8565b612d3284612c0d565b81016020851015612d41578190505b612d55612d4d85612c0d565b830182612cf4565b50505b505050565b600082821c905092915050565b6000612d7b60001984600802612d5d565b1980831691505092915050565b6000612d948383612d6a565b9150826002028217905092915050565b612dad82611caa565b67ffffffffffffffff811115612dc657612dc5611f3b565b5b612dd0825461233c565b612ddb828285612d17565b600060209050601f831160018114612e0e5760008415612dfc578287015190505b612e068582612d88565b865550612e6e565b601f198416612e1c86612bf8565b60005b82811015612e4457848901518255600182019150602085019450602081019050612e1f565b86831015612e615784890151612e5d601f891682612d6a565b8355505b6001600288020188555050505b505050505050565b60006060820190508181036000830152612e908186611d01565b9050612e9f6020830185611f07565b612eac6040830184611df1565b949350505050565b7f4552433732313a20617070726f766520746f2063616c6c657200000000000000600082015250565b6000612eea601983611cb5565b9150612ef582612eb4565b602082019050919050565b60006020820190508181036000830152612f1981612edd565b9050919050565b7f4552433732313a207472616e7366657220746f206e6f6e20455243373231526560008201527f63656976657220696d706c656d656e7465720000000000000000000000000000602082015250565b6000612f7c603283611cb5565b9150612f8782612f20565b604082019050919050565b60006020820190508181036000830152612fab81612f6f565b9050919050565b600081519050919050565b600082825260208201905092915050565b6000612fd982612fb2565b612fe38185612fbd565b9350612ff3818560208601611cc6565b612ffc81611cf0565b840191505092915050565b600060808201905061301c6000830187611df1565b6130296020830186611df1565b6130366040830185611f07565b81810360608301526130488184612fce565b905095945050505050565b60008151905061306281611c1b565b92915050565b60006020828403121561307e5761307d611be5565b5b600061308c84828501613053565b91505092915050565b60006130a082611d5c565b91507fffffffffffffffffffffffffffffffffffffffffffffffffffffffffffffffff82036130d2576130d1612a2d565b5b600182019050919050565b60006130e882611d5c565b91506130f383611d5c565b92508261310357613102612ac4565b5b828206905092915050565b7f4e487b7100000000000000000000000000000000000000000000000000000000600052603260045260246000fd5b7f4552433732313a206d696e7420746f20746865207a65726f2061646472657373600082015250565b6000613173602083611cb5565b915061317e8261313d565b602082019050919050565b600060208201905081810360008301526131a281613166565b9050919050565b7f4552433732313a20746f6b656e20616c7265616479206d696e74656400000000600082015250565b60006131df601c83611cb5565b91506131ea826131a9565b602082019050919050565b6000602082019050818103600083015261320e816131d2565b905091905056fe416e204e465420772f20494420257320686173206265656e206d696e74656420746f2025734142434445464748494a4b4c4d4e4f505152535455565758595a6162636465666768696a6b6c6d6e6f707172737475767778797a303132333435363738392b2fa26469706673582212205121e427f39b84a95ddd95813dbe995bd9e585f06a4f88c02eea7a4422237d9364736f6c63430008110033",
  "linkReferences": {},
  "deployedLinkReferences": {}
}