{
  "_format": "hh-sol-artifact-1",
  "contractName": "CryptoForum",
  "sourceName": "contracts/CryptoForum.sol",
  "abi": [
    {
      "inputs": [],
      "stateMutability": "nonpayable",
      "type": "constructor"
    },
    {
      "inputs": [
        {
          "internalType": "uint256",
          "name": "",
          "type": "uint256"
        }
      ],
      "name": "comments",
      "outputs": [
        {
          "internalType": "uint256",
          "name": "id",
          "type": "uint256"
        },
        {
          "internalType": "uint256",
          "name": "topicId",
          "type": "uint256"
        },
        {
          "internalType": "string",
          "name": "message",
          "type": "string"
        },
        {
          "internalType": "address",
          "name": "author",
          "type": "address"
        },
        {
          "internalType": "uint256",
          "name": "createdAt",
          "type": "uint256"
        }
      ],
      "stateMutability": "view",
      "type": "function"
    },
    {
      "inputs": [
        {
          "internalType": "string",
          "name": "_message",
          "type": "string"
        },
        {
          "internalType": "uint256",
          "name": "_topicId",
          "type": "uint256"
        }
      ],
      "name": "createComment",
      "outputs": [],
      "stateMutability": "nonpayable",
      "type": "function"
    },
    {
      "inputs": [
        {
          "internalType": "string",
          "name": "_title",
          "type": "string"
        },
        {
          "internalType": "string",
          "name": "_message",
          "type": "string"
        },
        {
          "internalType": "string",
          "name": "_attachment",
          "type": "string"
        }
      ],
      "name": "createTopic",
      "outputs": [],
      "stateMutability": "nonpayable",
      "type": "function"
    },
    {
      "inputs": [
        {
          "internalType": "uint256",
          "name": "_topicId",
          "type": "uint256"
        },
        {
          "internalType": "uint256",
          "name": "offset",
          "type": "uint256"
        }
      ],
      "name": "getNextComment",
      "outputs": [
        {
          "components": [
            {
              "internalType": "uint256",
              "name": "id",
              "type": "uint256"
            },
            {
              "internalType": "uint256",
              "name": "topicId",
              "type": "uint256"
            },
            {
              "internalType": "string",
              "name": "message",
              "type": "string"
            },
            {
              "internalType": "address",
              "name": "author",
              "type": "address"
            },
            {
              "internalType": "uint256",
              "name": "createdAt",
              "type": "uint256"
            }
          ],
          "internalType": "struct CryptoForum.Comment",
          "name": "",
          "type": "tuple"
        }
      ],
      "stateMutability": "view",
      "type": "function"
    },
    {
      "inputs": [
        {
          "internalType": "address",
          "name": "",
          "type": "address"
        }
      ],
      "name": "nicknames",
      "outputs": [
        {
          "internalType": "string",
          "name": "",
          "type": "string"
        }
      ],
      "stateMutability": "view",
      "type": "function"
    },
    {
      "inputs": [
        {
          "internalType": "string",
          "name": "desiredNickname",
          "type": "string"
        }
      ],
      "name": "setNickname",
      "outputs": [],
      "stateMutability": "nonpayable",
      "type": "function"
    },
    {
      "inputs": [
        {
          "internalType": "uint256",
          "name": "",
          "type": "uint256"
        }
      ],
      "name": "topics",
      "outputs": [
        {
          "internalType": "uint256",
          "name": "id",
          "type": "uint256"
        },
        {
          "internalType": "string",
          "name": "title",
          "type": "string"
        },
        {
          "internalType": "string",
          "name": "message",
          "type": "string"
        },
        {
          "internalType": "address",
          "name": "author",
          "type": "address"
        },
        {
          "internalType": "uint256",
          "name": "createdAt",
          "type": "uint256"
        },
        {
          "internalType": "string",
          "name": "attachment",
          "type": "string"
        }
      ],
      "stateMutability": "view",
      "type": "function"
    }
  ],
  "bytecode": "0x608060405234801561001057600080fd5b506113e1806100206000396000f3fe608060405234801561001057600080fd5b506004361061007d5760003560e01c80638ebb4c151161005b5780638ebb4c15146100ef578063909151b514610123578063f6aaa86714610153578063f72ead13146101835761007d565b806318d9adab146100825780631c5d9faa146100b75780632e8882e9146100d3575b600080fd5b61009c60048036038101906100979190610a0e565b61019f565b6040516100ae96959493929190610b1b565b60405180910390f35b6100d160048036038101906100cc9190610cc6565b6103a3565b005b6100ed60048036038101906100e89190610d0f565b6103f2565b005b61010960048036038101906101049190610a0e565b61051c565b60405161011a959493929190610db6565b60405180910390f35b61013d60048036038101906101389190610e3c565b61060a565b60405161014a9190610e69565b60405180910390f35b61016d60048036038101906101689190610e8b565b6106aa565b60405161017a9190610fa9565b60405180910390f35b61019d60048036038101906101989190610fcb565b61087e565b005b600181815481106101af57600080fd5b90600052602060002090600602016000915090508060000154908060010180546101d890611056565b80601f016020809104026020016040519081016040528092919081815260200182805461020490611056565b80156102515780601f1061022657610100808354040283529160200191610251565b820191906000526020600020905b81548152906001019060200180831161023457829003601f168201915b50505050509080600201805461026690611056565b80601f016020809104026020016040519081016040528092919081815260200182805461029290611056565b80156102df5780601f106102b4576101008083540402835291602001916102df565b820191906000526020600020905b8154815290600101906020018083116102c257829003601f168201915b5050505050908060030160009054906101000a900473ffffffffffffffffffffffffffffffffffffffff169080600401549080600501805461032090611056565b80601f016020809104026020016040519081016040528092919081815260200182805461034c90611056565b80156103995780601f1061036e57610100808354040283529160200191610399565b820191906000526020600020905b81548152906001019060200180831161037c57829003601f168201915b5050505050905086565b806000803373ffffffffffffffffffffffffffffffffffffffff1673ffffffffffffffffffffffffffffffffffffffff16815260200190815260200160002090816103ee9190611233565b5050565b816104008151116105165760006040518060c0016040528060018054905081526020018681526020018581526020013373ffffffffffffffffffffffffffffffffffffffff16815260200142815260200184815250905060018190806001815401808255809150506001900390600052602060002090600602016000909190919091506000820151816000015560208201518160010190816104949190611233565b5060408201518160020190816104aa9190611233565b5060608201518160030160006101000a81548173ffffffffffffffffffffffffffffffffffffffff021916908373ffffffffffffffffffffffffffffffffffffffff1602179055506080820151816004015560a08201518160050190816105119190611233565b505050505b50505050565b6002818154811061052c57600080fd5b906000526020600020906005020160009150905080600001549080600101549080600201805461055b90611056565b80601f016020809104026020016040519081016040528092919081815260200182805461058790611056565b80156105d45780601f106105a9576101008083540402835291602001916105d4565b820191906000526020600020905b8154815290600101906020018083116105b757829003601f168201915b5050505050908060030160009054906101000a900473ffffffffffffffffffffffffffffffffffffffff16908060040154905085565b6000602052806000526040600020600091509050805461062990611056565b80601f016020809104026020016040519081016040528092919081815260200182805461065590611056565b80156106a25780601f10610677576101008083540402835291602001916106a2565b820191906000526020600020905b81548152906001019060200180831161068557829003601f168201915b505050505081565b6106b261097f565b6106ba61097f565b60008060005b6002805490508110156108605786600282815481106106e2576106e1611305565b5b9060005260206000209060050201600101540361084d5785830361083e576002818154811061071457610713611305565b5b90600052602060002090600502016040518060a0016040529081600082015481526020016001820154815260200160028201805461075190611056565b80601f016020809104026020016040519081016040528092919081815260200182805461077d90611056565b80156107ca5780601f1061079f576101008083540402835291602001916107ca565b820191906000526020600020905b8154815290600101906020018083116107ad57829003601f168201915b505050505081526020016003820160009054906101000a900473ffffffffffffffffffffffffffffffffffffffff1673ffffffffffffffffffffffffffffffffffffffff1673ffffffffffffffffffffffffffffffffffffffff168152602001600482015481525050935060019150610860565b828061084990611363565b9350505b808061085890611363565b9150506106c0565b50600115158115151461087257600080fd5b82935050505092915050565b8161040081511161097a5760006040518060a0016040528060028054905081526020018481526020018581526020013373ffffffffffffffffffffffffffffffffffffffff1681526020014281525090506002819080600181540180825580915050600190039060005260206000209060050201600090919091909150600082015181600001556020820151816001015560408201518160020190816109249190611233565b5060608201518160030160006101000a81548173ffffffffffffffffffffffffffffffffffffffff021916908373ffffffffffffffffffffffffffffffffffffffff160217905550608082015181600401555050505b505050565b6040518060a00160405280600081526020016000815260200160608152602001600073ffffffffffffffffffffffffffffffffffffffff168152602001600081525090565b6000604051905090565b600080fd5b600080fd5b6000819050919050565b6109eb816109d8565b81146109f657600080fd5b50565b600081359050610a08816109e2565b92915050565b600060208284031215610a2457610a236109ce565b5b6000610a32848285016109f9565b91505092915050565b610a44816109d8565b82525050565b600081519050919050565b600082825260208201905092915050565b60005b83811015610a84578082015181840152602081019050610a69565b60008484015250505050565b6000601f19601f8301169050919050565b6000610aac82610a4a565b610ab68185610a55565b9350610ac6818560208601610a66565b610acf81610a90565b840191505092915050565b600073ffffffffffffffffffffffffffffffffffffffff82169050919050565b6000610b0582610ada565b9050919050565b610b1581610afa565b82525050565b600060c082019050610b306000830189610a3b565b8181036020830152610b428188610aa1565b90508181036040830152610b568187610aa1565b9050610b656060830186610b0c565b610b726080830185610a3b565b81810360a0830152610b848184610aa1565b9050979650505050505050565b600080fd5b600080fd5b7f4e487b7100000000000000000000000000000000000000000000000000000000600052604160045260246000fd5b610bd382610a90565b810181811067ffffffffffffffff82111715610bf257610bf1610b9b565b5b80604052505050565b6000610c056109c4565b9050610c118282610bca565b919050565b600067ffffffffffffffff821115610c3157610c30610b9b565b5b610c3a82610a90565b9050602081019050919050565b82818337600083830152505050565b6000610c69610c6484610c16565b610bfb565b905082815260208101848484011115610c8557610c84610b96565b5b610c90848285610c47565b509392505050565b600082601f830112610cad57610cac610b91565b5b8135610cbd848260208601610c56565b91505092915050565b600060208284031215610cdc57610cdb6109ce565b5b600082013567ffffffffffffffff811115610cfa57610cf96109d3565b5b610d0684828501610c98565b91505092915050565b600080600060608486031215610d2857610d276109ce565b5b600084013567ffffffffffffffff811115610d4657610d456109d3565b5b610d5286828701610c98565b935050602084013567ffffffffffffffff811115610d7357610d726109d3565b5b610d7f86828701610c98565b925050604084013567ffffffffffffffff811115610da057610d9f6109d3565b5b610dac86828701610c98565b9150509250925092565b600060a082019050610dcb6000830188610a3b565b610dd86020830187610a3b565b8181036040830152610dea8186610aa1565b9050610df96060830185610b0c565b610e066080830184610a3b565b9695505050505050565b610e1981610afa565b8114610e2457600080fd5b50565b600081359050610e3681610e10565b92915050565b600060208284031215610e5257610e516109ce565b5b6000610e6084828501610e27565b91505092915050565b60006020820190508181036000830152610e838184610aa1565b905092915050565b60008060408385031215610ea257610ea16109ce565b5b6000610eb0858286016109f9565b9250506020610ec1858286016109f9565b9150509250929050565b610ed4816109d8565b82525050565b600082825260208201905092915050565b6000610ef682610a4a565b610f008185610eda565b9350610f10818560208601610a66565b610f1981610a90565b840191505092915050565b610f2d81610afa565b82525050565b600060a083016000830151610f4b6000860182610ecb565b506020830151610f5e6020860182610ecb565b5060408301518482036040860152610f768282610eeb565b9150506060830151610f8b6060860182610f24565b506080830151610f9e6080860182610ecb565b508091505092915050565b60006020820190508181036000830152610fc38184610f33565b905092915050565b60008060408385031215610fe257610fe16109ce565b5b600083013567ffffffffffffffff81111561100057610fff6109d3565b5b61100c85828601610c98565b925050602061101d858286016109f9565b9150509250929050565b7f4e487b7100000000000000000000000000000000000000000000000000000000600052602260045260246000fd5b6000600282049050600182168061106e57607f821691505b60208210810361108157611080611027565b5b50919050565b60008190508160005260206000209050919050565b60006020601f8301049050919050565b600082821b905092915050565b6000600883026110e97fffffffffffffffffffffffffffffffffffffffffffffffffffffffffffffffff826110ac565b6110f386836110ac565b95508019841693508086168417925050509392505050565b6000819050919050565b600061113061112b611126846109d8565b61110b565b6109d8565b9050919050565b6000819050919050565b61114a83611115565b61115e61115682611137565b8484546110b9565b825550505050565b600090565b611173611166565b61117e818484611141565b505050565b5b818110156111a25761119760008261116b565b600181019050611184565b5050565b601f8211156111e7576111b881611087565b6111c18461109c565b810160208510156111d0578190505b6111e46111dc8561109c565b830182611183565b50505b505050565b600082821c905092915050565b600061120a600019846008026111ec565b1980831691505092915050565b600061122383836111f9565b9150826002028217905092915050565b61123c82610a4a565b67ffffffffffffffff81111561125557611254610b9b565b5b61125f8254611056565b61126a8282856111a6565b600060209050601f83116001811461129d576000841561128b578287015190505b6112958582611217565b8655506112fd565b601f1984166112ab86611087565b60005b828110156112d3578489015182556001820191506020850194506020810190506112ae565b868310156112f057848901516112ec601f8916826111f9565b8355505b6001600288020188555050505b505050505050565b7f4e487b7100000000000000000000000000000000000000000000000000000000600052603260045260246000fd5b7f4e487b7100000000000000000000000000000000000000000000000000000000600052601160045260246000fd5b600061136e826109d8565b91507fffffffffffffffffffffffffffffffffffffffffffffffffffffffffffffffff82036113a05761139f611334565b5b60018201905091905056fea2646970667358221220d2f8fd37d584a3e594a992b47b97a78389e6e9cc6861010626ec37c4b8731a7b64736f6c63430008110033",
  "linkReferences": {},
  "deployedLinkReferences": {}
}